S01B00002E2E2F526F626F745F44657369676E5F436F64652E733139B5
S32D0000C000000000205DC2000011C3000017C300001DC3000023C3000029C3000000000000000000000000000073
S32D0000C028000000002FC3000035C30000000000003BC3000041C3000029D0000035D0000041D000004DD00000D2
S32D0000C05059D0000065D0000071D000007DD0000089D0000095D00000A1D00000ADD00000B9D00000C5D000000C
S32D0000C078D1D00000DDD00000E9D00000F5D0000001D100000DD1000019D1000025D1000031D100003DD100002E
S32D0000C0A049D1000055D1000061D100006DD1000079D1000085D1000091D100009DD10000A9D10000B5D1000052
S32D0000C0C8C1D10000CDD10000D9D10000E5D10000F1D10000FDD1000009D2000015D2000021D200002DD2000076
S32D0000C0F039D20000111E010045D2000051D200005DD2000069D2000075D2000081D200008DD2000099D20000DF
S32D0000C118A5D20000B1D20000BDD20000C9D20000D5D20000E1D20000EDD20000F9D2000005D3000011D3000035
S32D0000C1401DD3000029D3000035D3000041D3000049FE00004DD3000059D3000065D3000071D300007DD300006A
S32D0000C16889D3000095D30000A1D30000ADD30000B9D30000C5D30000D1D30000DDD30000E9D30000F5D30000F5
S32D0000C19001D400000DD4000019D4000035FA0000E5F8000095F90000A5CD0000D9FA000025D4000031D4000001
S32D0000C1B83DD40000B481010000000020C8160000B48101000000FF1F00000000C8160020B80400000000FF1FE8
S32D0000C1E00000000080B489B000AFF860B9607A60BB68FB61FB68BB6100237B617A697B689A420BD2BA69131DFB
S32D0000C208BB61FB69191DF96112681A607B6904337B61EFE700BF2437BD4680BC704780B485B000AF786039609E
S32D0000C2307B68FB600023BB60BA683B689A4208D2FB681A1DFA6000221A60BB680433BB60F2E700BF1437BD46FE
S32D0000C25880BC704780B586B000AF72B6234B4CF220521A80214B4DF628121A80204B4FF4E9721A801F4B7B615F
S32D0000C2807B691F4A934214D27B691A1D7A611B683B617B691A1D7A611B68FB607B691A1D7A611B68BB60BA68E9
S32D0000C2A8F9683869FFF79AFFE6E77B69134A93420ED27B691A1D7A611B68FB607B691A1D7A611B68BB60B9688B
S32D0000C2D0F868FFF7A8FFECE70B4B7B600B4A7B681A6006F089FF62B600F022FE00F0BCF8FEE700BF0E2005402C
S32D0000C2F800200540BCC10000D4C10000E4C1000008ED00E000C0000080B400AFFEE780B400AFFEE780B400AFF4
S32D0000C320FEE780B400AFFEE780B400AFFEE780B400AFFEE780B400AFFEE780B400AFFEE780B400AFFEE780B426
S32D0000C34800AFFEE7FFFFFFFFFFFFFFFFFFFFFFFFFFFFFFFFFFFFFFFFFFFFFFFFFFFFFFFFFFFFFFFFFFFFFFFF57
S32D0000C370FFFFFFFFFFFFFFFFFFFFFFFFFFFFFFFFFFFFFFFFFFFFFFFFFFFFFFFFFFFFFFFFFFFFFFFFFFFFFFFFC7
S32D0000C398FFFFFFFFFFFFFFFFFFFFFFFFFFFFFFFFFFFFFFFFFFFFFFFFFFFFFFFFFFFFFFFFFFFFFFFFFFFFFFFF9F
S32D0000C3C0FFFFFFFFFFFFFFFFFFFFFFFFFFFFFFFFFFFFFFFFFFFFFFFFFFFFFFFFFFFFFFFFFFFFFFFFFFFFFFFF77
S32D0000C3E8FFFFFFFFFFFFFFFFFFFFFFFFFFFFFFFFFFFFFFFFFFFFFFFFFFFFFFFFFFFFFFFFFFFFFFFFFEFFFFFF50
S32D0000C41010B5054C237833B9044B13B10448AFF300800123237010BDC816002000000000B481010008B5034B1D
S32D0000C4381BB103490348AFF3008008BD00000000CC160020B481010080B483B000AF78607B6823F000431846CF
S32D0000C4600C37BD4680BC704780B582B000AF40F62E11284803F0CFFE4FF4FA71254803F0ADFE4FF00001234856
S32D0000C48803F0E2FE0021224804F0CEFA0121204804F01BFB1F491E4804F04BFD3A463B1D19461B4804F09CFBA9
S32D0000C4B00346002BF6D00021174804F0B9FA00BF1749154804F039FD00F0DEF90346002B0CBF01230023DBB27D
S32D0000C4D8002B00D1F4E700BF00F0BAFA00F08AFB0E490F4800F0F8F80E490F4800F020F80021074804F098FA4D
S32D0000C5000C49054804F019FD002318460837BD4680BD00BF1C170020141A0020A47A0100C87A01000000C84196
S32D0000C5280000B442000048420000B041E87A010090B585B000AF786039607868FFF784FF0346184605F0D0FFB3
S32D0000C55057A3D3E9002306F023F802460B461046194606F0FFFA0346FB60554803F014FB544803F011FB002197
S32D0000C578534804F059FA5349514804F0DAFC79684F4804F0E9FC4FF00001786806F000FE0346002B1ED039684C
S32D0000C5A04B4800F0D1FF39684A4800F0CDFF444803F0E0FA0346184606F0DEFB0346012214461946F86806F0E1
S32D0000C5C8E7FD0346002B01D100231C46E3B2002B2DD0E8E74FF00001786806F0BBFD0346002B24D03B6883F0BE
S32D0000C5F000431946364800F0A7FF3B6883F000431946344800F0A0FF2D4803F0B3FA0346184606F0B1FB0346FD
S32D0000C618012214461946F86806F0BAFD0346002B01D100231C46E3B2002B00D0E8E7274800F044FF244800F0E3
S32D0000C64041FF2549204804F078FC1D4803F092FA0346184605F03AFF15A3D3E9002306F0C9F802460B4618484E
S32D0000C66804F08DFC154803F081FA0346184605F029FF0DA3D3E9002306F0B8F802460B460F4804F07CFC0C48B3
S32D0000C69003F082FA0B4803F07FFA07A1D1E9000102F024FE00BF1437BD4690BDAFF30080C9D5A341BF3E444058
S32D0000C6B89A9999999999B93FF4160020F8160020141A0020F07A0100EC160020E4160020F87A0100FFFFFFFF09
S32D0000C6E090B585B000AF786039607868FFF7B0FE0346184605F0FCFE57A3D3E9002305F04FFF02460B4610466D
S32D0000C708194606F02BFA0346FB60554803F040FA544803F03DFA0021534804F085F95349514804F006FC79681B
S32D0000C7304F4804F015FC4FF00001786806F02CFD0346002B21D03B6883F0004319464A4800F0FAFE3968494837
S32D0000C75800F0F6FE424803F009FA0346184606F007FB0346012214461946F86806F006FD0346002B01D10023C9
S32D0000C7801C46E3B2002B2AD0E8E74FF00001786806F0E4FC0346002B21D03968364800F0D3FE3B6883F000430C
S32D0000C7A81946344800F0CCFE2E4803F0DFF90346184606F0DDFA0346012214461946F86806F0DCFC0346002B52
S32D0000C7D001D100231C46E3B2002B00D0E8E7274800F070FE244800F06DFE2549204804F0A4FB1D4803F0BEF979
S32D0000C7F80346184605F066FE15A3D3E9002305F0F5FF02460B46184804F0B9FB154803F0ADF90346184605F060
S32D0000C82055FE0DA3D3E9002305F0E4FF02460B460F4804F0A8FB0C4803F0AEF90B4803F0ABF907A1D1E900016E
S32D0000C84802F050FD00BF1437BD4690BDAFF3008033333333333305409A9999999999B93FF4160020F8160020A9
S32D0000C870141A00200C7B0100EC160020E4160020147B0100FFFFFFFF80B500AF464803F0A7F903464FF000016E
S32D0000C898184606F07DFC0346002B10D0404803F09BF90346184605F01FFE37A3D3E9002306F0EEF80346002B80
S32D0000C8C001D0012300E00023002B05D00221374804F0AEF8002356E0334803F081F90346184605F005FE2AA369
S32D0000C8E8D3E9002306F0E8F80346002B10D02C4803F072F90346184605F0F6FD24A3D3E9002306F0C5F8034616
S32D0000C910002B01D0012300E00023002B05D00421224804F085F801232DE01F4803F058F90346184605F0DCFD85
S32D0000C93817A3D3E9002306F0BFF80346002B10D0174803F049F90346184605F0CDFD12A3D3E9002306F09CF81F
S32D0000C9600346002B01D0012300E00023002B09D000210E4804F05CF80D490C4804F043FA022300E00323184616
S32D0000C98880BD00BFAFF30080CDCCCCCCCCCCEC3FCDCCCCCCCCCCFC3F6666666666660A40FC160020141A00203D
S32D0000C9B0247B010080B582B000AF78607B68002B03D07B68012B15D029E01C4802F090FD0346002B07D11A485C
S32D0000C9D802F08AFD0346002B01D1012300E00023002B01D0002320E001231EE0134802F07BFD0346002B07D1F9
S32D0000CA00114802F075FD0346002B01D1012300E00023002B01D000230BE0012309E00B490B4804F08AFA4FF069
S32D0000CA2800000A4902F05EFC002318460837BD4680BD00BF0C170020101700201417002018170020CC7B010016
S32D0000CA50141A00200000084090B583B000AF564B7B60564B3B605649564800F06DFD5449554800F069FD55487F
S32D0000CA7803F07CF80346184606F07AF90346012214461946786806F083FB0346002B01D100231C46E3B2002B15
S32D0000CAA000D0E8E74A494FF08240FFF745FD49494948FFF715FE4949424800F045FD4749414800F041FD4148B3
S32D0000CAC803F054F80346184606F052F90346012214461946386806F05BFB0346002B01D100231C46E3B2002B7D
S32D0000CAF000D0E8E736494FF08240FFF71DFD38493848FFF7EDFD38492F4800F01DFD36492C4800F019FD0020ED
S32D0000CB18FFF74CFF0346002B00D0F8E7284800F0CDFC264800F0CAFC2D492E48FFF700FD26492A48FFF7D0FDBB
S32D0000CB402649214800F000FD24491E4800F0FCFC0020FFF72FFF0346002B00D0F8E71A4800F0B0FC174800F093
S32D0000CB68ADFC19492048FFF7E3FC18491B48FFF7B3FD1E49124800F0E3FC1C490F4800F0DFFC1B4802F0B0FCD5
S32D0000CB900346012B0CBF01230023DBB2002B00D0F3E7094800F08EFC064800F08BFC00BF0C37BD4690BD00BFED
S32D0000CBB8FAF5A14238B25E4400000242EC160020E4160020F4160020000048420000C841000034420000964266
S32D0000CBE0000096410000B4C200001642000040C0000020C1000048C21417002080B500AF2149224800F0A0FC08
S32D0000CC081F49214800F09CFC0020FFF7CFFE0346002B00D0F8E71B4800F050FC1A4800F04DFC17491948FFF7AE
S32D0000CC3083FC19491948FFF753FD13491848FFF77BFC15491748FFF74BFD1749174803F0FFFA11491648FFF7D1
S32D0000CC5843FD0F491548FFF73FFD09491448FFF767FC0B491348FFF737FD4FF000010D4803F0EAFA064909489B
S32D0000CC80FFF72EFD00BF80BD00004842E4160020EC1600200000A0C00000C8410000B44200005041000034423D
S32D0000CCA80000C8421C1700200000F041000070410000C040000034C280B582B000AF786039607B68012B3ED184
S32D0000CCD03B684FF6FF72934239D11F4A03211F4800F0B2FB1C4A02211D4800F0ADFB00211C4802F081FC0121D1
S32D0000CCF81B4802F07DFC02211A4802F05BFF0821194802F057FF0921184802F053FF0A21174802F04FFF1021D4
S32D0000CD20164802F009FB1121154802F005FB1221144802F001FB1321134802F0FDFA0021124803F02FFA012162
S32D0000CD48114803F02BFA00BF0837BD4680BD00BF00001041E4160020EC160020F4160020F8160020FC16002038
S32D0000CD700017002004170020081700200C1700201017002014170020181700201C1700202817002080B500AF2A
S32D0000CD984FF6FF710120FFF78FFF80BD80B500AF0F4BD3F8A03003F48053002B14BF01230023DBB2002B10D056
S32D0000CDC0094BD3F8A030084A23F48053C2F8A030064805F0A1F9064B1B68054A23F40053136000BF80BD00BFF8
S32D0000CDE800C004409C1A0020C0F00F4080B400AF124B4FF480725A63114B5B69104A43F4005353610E4B1B687E
S32D0000CE100D4A43F4005313600A4B0C4A1A630C4BD3F888310A4A43F08063C2F88831084B9B68074A43F0806303
S32D0000CE38936000BFBD4680BC704700BF00C00440C0F00F4003010A0000E100E080B400AF324B00225A70314BCB
S32D0000CE6098221A702F4B9B79DBB203F01003002B14BF01230023DBB2002B00D0F2E7294B9B79DBB29B0803F0EE
S32D0000CE880303022B14BF01230023DBB2002B00D0F1E7224B18221A71204B00225A71204B03F5825304331F4A6D
S32D0000CEB01A601C4B54225A711A4B9B79DBB203F02003002B0CBF01230023DBB2002B00D0F2E7144B9B79DBB278
S32D0000CED803F04003002B0CBF01230023DBB2002B00D0F2E70D4B1B78DBB20C4A03F03F03DBB21370094B9B79DD
S32D0000CF00DBB29B0803F00303032B14BF01230023DBB2002B00D0F1E700231846BD4680BC704700BF0040064076
S32D0000CF28007004400000130180B500AF344B03F5815318331B68324943F4785201F5815318331A60FFF752FFC4
S32D0000CF50FFF780FF2D4B58221A602C4B1B684FF47A7202FB03F32A4A1360294B1B681A46254B03F58253043304
S32D0000CF781B681B0E03F00F030133B2FBF3F31A46224B1A601E4B03F581531C331B681C4943F0225201F58153EF
S32D0000CFA01C331A60184B03F5815310331B68164943F0006201F5815310331A60164B4FF480721A61642002F0A3
S32D0000CFC865F8134B5B69124A23F010035361104B00221A600E4B10225A610E4803F0DEFB02F0E2FE02F040FF24
S32D0000CFF00B4802F0B3F80B4805F0E2F84FF4FA6002F05EF900BF80BD00700440601900205C19002064190020A0
S32D0000D01800D00340141A0020581900200C1B002080B500AFFFF78BF900BF80BD80B500AFFFF785F900BF80BD03
S32D0000D04080B500AFFFF77FF900BF80BD80B500AFFFF779F900BF80BD80B500AFFFF773F900BF80BD80B500AF06
S32D0000D068FFF76DF900BF80BD80B500AFFFF767F900BF80BD80B500AFFFF761F900BF80BD80B500AFFFF75BF9AE
S32D0000D09000BF80BD80B500AFFFF755F900BF80BD80B500AFFFF74FF900BF80BD80B500AFFFF749F900BF80BD1C
S32D0000D0B880B500AFFFF743F900BF80BD80B500AFFFF73DF900BF80BD80B500AFFFF737F900BF80BD80B500AF42
S32D0000D0E0FFF731F900BF80BD80B500AFFFF72BF900BF80BD80B500AFFFF725F900BF80BD80B500AFFFF71FF926
S32D0000D10800BF80BD80B500AFFFF719F900BF80BD80B500AFFFF713F900BF80BD80B500AFFFF70DF900BF80BD57
S32D0000D13080B500AFFFF707F900BF80BD80B500AFFFF701F900BF80BD80B500AFFFF7FBF800BF80BD80B500AF7E
S32D0000D158FFF7F5F800BF80BD80B500AFFFF7EFF800BF80BD80B500AFFFF7E9F800BF80BD80B500AFFFF7E3F8A1
S32D0000D18000BF80BD80B500AFFFF7DDF800BF80BD80B500AFFFF7D7F800BF80BD80B500AFFFF7D1F800BF80BD96
S32D0000D1A880B500AFFFF7CBF800BF80BD80B500AFFFF7C5F800BF80BD80B500AFFFF7BFF800BF80BD80B500AFBC
S32D0000D1D0FFF7B9F800BF80BD80B500AFFFF7B3F800BF80BD80B500AFFFF7ADF800BF80BD80B500AFFFF7A7F819
S32D0000D1F800BF80BD80B500AFFFF7A1F800BF80BD80B500AFFFF79BF800BF80BD80B500AFFFF795F800BF80BDD2
S32D0000D22080B500AFFFF78FF800BF80BD80B500AFFFF789F800BF80BD80B500AFFFF783F800BF80BD80B500AFF7
S32D0000D248FFF77DF800BF80BD80B500AFFFF777F800BF80BD80B500AFFFF771F800BF80BD80B500AFFFF76BF890
S32D0000D27000BF80BD80B500AFFFF765F800BF80BD80B500AFFFF75FF800BF80BD80B500AFFFF759F800BF80BD0D
S32D0000D29880B500AFFFF753F800BF80BD80B500AFFFF74DF800BF80BD80B500AFFFF747F800BF80BD80B500AF33
S32D0000D2C0FFF741F800BF80BD80B500AFFFF73BF800BF80BD80B500AFFFF735F800BF80BD80B500AFFFF72FF808
S32D0000D2E800BF80BD80B500AFFFF729F800BF80BD80B500AFFFF723F800BF80BD80B500AFFFF71DF800BF80BD49
S32D0000D31080B500AFFFF717F800BF80BD80B500AFFFF711F800BF80BD80B500AFFFF70BF800BF80BD80B500AF6E
S32D0000D338FFF705F800BF80BD80B500AFFEF7FFFF00BF80BD80B500AFFEF7F9FF00BF80BD80B500AFFEF7F3FF6D
S32D0000D36000BF80BD80B500AFFEF7EDFF00BF80BD80B500AFFEF7E7FF00BF80BD80B500AFFEF7E1FF00BF80BD72
S32D0000D38880B500AFFEF7DBFF00BF80BD80B500AFFEF7D5FF00BF80BD80B500AFFEF7CFFF00BF80BD80B500AF98
S32D0000D3B0FEF7C9FF00BF80BD80B500AFFEF7C3FF00BF80BD80B500AFFEF7BDFF00BF80BD80B500AFFEF7B7FFDF
S32D0000D3D800BF80BD80B500AFFEF7B1FF00BF80BD80B500AFFEF7ABFF00BF80BD80B500AFFEF7A5FF00BF80BDAE
S32D0000D40080B500AFFEF79FFF00BF80BD80B500AFFEF799FF00BF80BD80B500AFFEF793FF00BF80BD80B500AFD3
S32D0000D428FEF78DFF00BF80BD80B500AFFEF787FF00BF80BD80B500AFFEF781FF00BF80BD80B584B000AFF86039
S32D0000D4500B467A60FB72FB68FA7A1A71FB6800225A711749786805F097FE0346002B02D0134B7B600AE04FF0F2
S32D0000D4787E51786805F078FE0346002B02D04FF07E537B60786805F02FF809A3D3E9002305F082F802460B46AC
S32D0000D4A01046194605F05EFB0246FB681A60FB6818461037BD4680BDABAAAAAAAAAA20400000404180B582B0A9
S32D0000D4C800AF78607B685B79002B09D07B6800225A717B6819791E230022034801F074FE00BF0837BD4680BD60
S32D0000D4F05819002080B584B000AF786039603B687F2B02DD7F23FB7308E03B6813F1800F02DA8023FB7301E0CC
S32D0000D5183B68FB737B685B79FA7B9A4209D07B68FA7B5A717B681979FA7B1E23034801F04BFE00BF1037BD4617
S32D0000D54080BD00BF58190020B0B584B000AF786039603749386805F001FE0346002B02D0334B3B6008E03349A0
S32D0000D568386805F015FE0346002B01D02F4B3B60386804F0B9FF04460D467B681B68184604F0B2FF4FF0000200
S32D0000D590294B05F02FF902460B462046294604F0FFFF02460B461046194605F0DBFA03463B604FF000013868A0
S32D0000D5B805F0E4FD0346002B10D0386804F094FF17A3D3E9002304F0E7FF02460B461046194605F07BFA034680
S32D0000D5E0FB6018E0386804F083FF4FF00002134B04F0D6FF02460B46104619464FF000020D4B05F0F7F8024639
S32D0000D6080B461046194605F061FA0346FB60F9687868FFF76BFF00BF1037BD46B0BD00BF52B81E85EB51F43F08
S32D0000D6300000C8C20000C842000059400000604080B483B000AF03460A46FB711346BB71BB79002B03D1134BCE
S32D0000D65800221A7002E0114B01221A703823FB710E4B1A78FB791343FB710D4B9B78DBB20B4A43F01003DBB205
S32D0000D6809370094B9B78DBB2074A43F02003DBB29370054AFB79137100BF0C37BD4680BC704700BF34170020E5
S32D0000D6A80060064080B483B000AF01237B607B68312B04DC00BF7B6801337B60F7E700BF0C37BD4680BC7047F3
S32D0000D6D080B582B000AF03460A46FB711346BB71134B1B7800211846FFF7AAFF00F024F8104AFB79137100F02F
S32D0000D6F81FF80E4ABB79137100F01AF80B4B9B78DBB20A4A23F02003DBB29370074B9B78DBB2064A23F0100363
S32D0000D720DBB29370FFF7C2FF00BF0837BD4680BD351700200060064080B483B000AF174B1B78002B24D10023F6
S32D0000D7487B60154BDB78DBB203F00203002B0CBF01230023DBB2002B0DD07B6842F21072934203DD0B4B012207
S32D0000D7701A7004E07B6801337B6000BFE5E7084BDB78DBB2064A43F00203DBB2D37000E000BF0C37BD4680BCF4
S32D0000D798704700BF361700200060064080B582B000AF0346FB71FB79184600F05FF800BF0837BD4680BD80B583
S32D0000D7C082B000AF03460A46FB711346BB7100F035F8FB795B00DBB21846FFF7E3FFBB791846FFF7DFFF00F0CB
S32D0000D7E837F800BF0837BD4680BD80B500AFFF2000F03CF80346184680BD80B584B000AF0346FB7100F016F8D0
S32D0000D810FB795B005BB243F001035BB2DBB21846FFF7C0FFFFF7E5FF0346FB7300F014F8FB7B18461037BD467F
S32D0000D83880BDFFFF80B400AF044B9B68034A43F48013936000BFBD4680BC704740F00F4080B400AF044B5B681F
S32D0000D860034A43F48013536000BFBD4680BC704740F00F4080B485B000AF0346FB710023BB73164BDB6A03F0E5
S32D0000D8880043012B0CBF01230023DBB2002B03D0FB7B0133FB73F0E70E4BDB6A0D4A43F00043D3620B4AFB790E
S32D0000D8B053630A4BDB6A03F40033002B0CBF01230023DBB2002B00D0F3E7044B9B6BBB73BB7B18461437BD46CC
S32D0000D8D880BC704700C00A4080B582B000AF224B03F5815310331B681F4943F4805201F5815310331A601D4BB0
S32D0000D9004FF480721A651C4B5B691B4A43F480135361FFF7A1FF174B4FF400725A65154B4FF400729A65134B59
S32D0000D9284FF40072DA65134B134A1A60114B134ADA6000237B607B68092B06DCFF20FFF72DFF7B6801337B608B
S32D0000D950F5E705A1D1E9000101F0C8FC00BF0837BD4680BDAFF300809A9999999999B93F0070044000A0044030
S32D0000D97840F00F4000C00A40000C00800500003E90B486B000AFF860B9607A60FB68594A93420CD1584B03F562
S32D0000D9A0815314331B68564943F4806201F5815314331A604FE0FB68524A93420CD1504B03F5815314331B6867
S32D0000D9C84D4943F4006201F5815314331A603EE0FB684B4A93420CD1474B03F5815314331B68454943F48052F0
S32D0000D9F001F5815314331A602DE0FB68434A93420CD13F4B03F5815314331B683C4943F4005201F58153143390
S32D0000DA181A601CE0FB683C4A93420CD1364B03F5815308331B68344943F4806201F5815308331A600BE0304B49
S32D0000DA4003F5815308331B682D4943F4006201F5815308331A60FB68DB78DBB223F00C03DAB2FB68DA70FB689F
S32D0000DA6800229A70BB684FF47A7202FB03F27B681B0192FBF3F39CB2FB681B78DBB223F01F03FB7523461B12A2
S32D0000DA90DBB203F01F03DAB2FB7D1343DAB2FB681A70E2B2FB685A70BB684FF4FA4202FB03F27B681B0192FB12
S32D0000DAB8F3F39AB263019BB2D31A9CB2FB689B7ADBB223F01F03FB75E3B203F01F03DAB2FB7D1343DAB2FB6885
S32D0000DAE09A72FB68DB78DBB243F00C03DAB2FB68DA7000BF1837BD4690BC704700A006400070044000B00640AA
S32D0000DB0800C0064000D0064000A00E4080B483B000AF78607B681B79DBB203F02003002B0CBF01230023DBB213
S32D0000DB30002B00D0F2E77B68DB79DBB218460C37BD4680BC704780B483B000AF78600B46FB707B681B79DBB2EA
S32D0000DB585BB2DB43DBB2DB09DBB2002B00D0F4E77B68FA78DA7100BF0C37BD4680BC704780B487B000AFF86096
S32D0000DB80B9607A60FB687B617B685A1E7A60002B14BF01230023DBB2002B06D07B695A1C7A61BA68D2B21A70D8
S32D0000DBA8EEE700BF1C37BD4680BC704780B584B000AF786039607B681B6BFB60FA683B689A4252D07B681B79AB
S32D0000DBD0002B35D07B6858787B6803F134010123FA6801F0F5F80346002B14BF01230023DBB2002B01D0012399
S32D0000DBF83CE07B6800221A717B685A6A7B681B6A1344FA689A4217D27B68DB78FB72FB7A012B11D97B681B6A30
S32D0000DC20FA681344FB607B6858787B6803F134010123FA6801F0CCF8FB7A013BFB72EAE73B68002B15D07B6843
S32D0000DC4858787B6803F1340101233A6800F0D8FF0346002B14BF01230023DBB2002B01D0012303E07B683A68A2
S32D0000DC701A63002318461037BD4680BD80B584B000AF786000217868FFF794FF0346FB73FB7B002B40F09180EE
S32D0000DC987B681B78032B7BD17B685B79002B77D07B6800221A637B6834334FF4007200211846FFF75DFF7B6810
S32D0000DCC0552283F832227B68AA2283F833227B68522283F834207B68522283F835207B68612283F836207B680A
S32D0000DCE8412283F837207B68722283F818227B68722283F819227B68412283F81A227B68612283F81B227B6882
S32D0000DD101B69DAB27B6883F81C227B681B699BB21B12DAB27B6883F81D227B681B691B0CDAB27B6883F81E2277
S32D0000DD387B681B691B0EDAB27B6883F81F227B68DB68DAB27B6883F820227B68DB689BB21B12DAB27B6883F826
S32D0000DD6021227B68DB681B0CDAB27B6883F822227B68DB681B0EDAB27B6883F823227B6858787B6803F134019A
S32D0000DD887B685A69012301F01FF87B6800225A717B685B7800220021184601F0E1F80346002B14BF012300231C
S32D0000DDB0DBB2002B01D00123FB73FB7B18461037BD4680BD80B582B000AF78600B467B807B68002B08D07B68CC
S32D0000DDD81B78002B04D07B68DB887A889A4201D0092311E07B685B78184601F03BF9034603F00103002B14BF02
S32D0000DE0001230023DBB2002B01D0032300E0002318460837BD4680BD80B586B000AF78607B681A687B689B88C1
S32D0000DE2819461046FFF7CAFF0346FB75FB7D002B40F0A8807B689B7903F02003002B00F0A1807B689B7903F071
S32D0000DE504003002B1BD07B681B6858787B6803F128017B689A69012300F0B2FF0346002B14BF01230023DBB24F
S32D0000DE78002B01D0012386E07B689B7923F04003DAB27B689A717B681A687B68DB6919461046FFF78BFE034626
S32D0000DEA0FB75FB7D002B71D17B681B6A3B613B690B331A783B690B3342F02002D2B21A707B68DA683B691C332B
S32D0000DEC8D2B21A707B68DB689BB21A123B691D33D2B21A707B68DB681A0C3B691E33D2B21A707B68DB681A0EE0
S32D0000DEF03B691F33D2B21A707B681A693B691A33D2B21A707B681B699BB21A123B691B33D2B21A707B681B6954
S32D0000DF181A0C3B691433D2B21A707B681B691B0C9BB21A123B691533D2B21A700023FB603B691633FA68D2B26A
S32D0000DF401A70FB689BB21A123B691733D2B21A70FB681A0C3B691833D2B21A70FB681A0E3B691933D2B21A7042
S32D0000DF687B689B7923F02003DAB27B689A717B681B6801221A717B681B681846FFF77AFE0346FB75FB7D18460F
S32D0000DF901837BD4680BD80B584B000AF78607868FFF73AFF0346FB73FB7B002B02D17B6800221A60FB7B184657
S32D0000DFB81037BD4680BDFFFF80B588B000AF7860396080233B610F23FB604FF0FF337B610223FB61FB69B3F583
S32D0000DFE0807F23D80123BB61BB69102B1AD8FB69BA6902FB03F33A6802FB03F27B68D31ABB60BB68002B09DB5D
S32D0000E008BB687A699A4205D9BB687B61FB693B61BB69FB60BB690133BB61E1E7FB695B00FB61D7E71D4BDB6AEA
S32D0000E0301C4A23F00803D3621A4BDB6A23F47F2323F47F63BB613B695B081B029AB2FB68013B1B01DBB21A437C
S32D0000E058BB691343114A43F46023D3620F4B5B6A03F00803002B0CBF01230023DBB2002B03D00A2001F020F9BD
S32D0000E080F0E7084BDB6A074A43F00803D362054B1B6B044A43F48013136300BF2037BD4680BD00BF00100B406B
S32D0000E0A880B582B000AF786039607B6800221A60424B434ADA62414BDB6A03F08073002B14BF01230023DBB265
S32D0000E0D0002B00D0F3E73B4B0022C3F8C020394B4FF481325A60374B28229A62354B4FF001125A643B689B68D8
S32D0000E0F834491846FFF760FF304B5B6A03F00303002B14BF01230023DBB2002B00D0F3E72D4B40F243421A6041
S32D0000E1202B4B40F243425A60294B4FF488629A60274B40F24342DA60254B40F243421A61234B40F243425A616A
S32D0000E148224B03F5815310331B68204943F4003201F5815310331A60184B4FF6FF721A63164B1B4A5A63154BD8
S32D0000E170DB6A144A43F00063D362124BDB6A03F00063002B14BF01230023DBB2002B00D0F3E70C4B5B6A03F461
S32D0000E1988033002B14BF01230023DBB2002B02D07B6801221A60054B1B6B044A43F08003136300231846083747
S32D0000E1C0BD4680BD00100B400080000160CC050000D0044000700440B3007F0080B400AF064B5A6A40F2073386
S32D0000E1E81340002B14BF01230023DBB21846BD4680BC704700100B4080B485B000AF7860074B1B6B7A68134038
S32D0000E210FB60FB68002B00D1F6E7FB6818461437BD4680BC704700BF00100B4080B584B000AF78607B681B78C7
S32D0000E23803F03F03764A52F82330FB60FB68002B05D17B681B78002B01D00123DCE0714B1B6B704A43F0800363
S32D0000E26013636E4B5B6A03F00103002B14BF01230023DBB2002B00D0F3E7684A7B685B689360FB6823F44003F6
S32D0000E288FB607B685B789B0503F44003FA681343FB607B685B78022B03D1FB6843F40013FB607B685B78042BC6
S32D0000E2B016D1FB6803F44033B3F5003F08D1FB6823F44033FB60FB6843F44033FB6007E0FB6823F44033FB60ED
S32D0000E2D8FB6843F40033FB604E4B5B684D4A9BB253607B68DB68002B2AD0FB6803F44033B3F5403F03D0FB6888
S32D0000E30043F40013FB607B681B7A002B03D0FB6843F01003FB607B68DB68012B03D9FB6843F02003FB607B68AB
S32D0000E328DB68B3F1FF3F0BD03A4B5A687B68DB681B04384913434B60FB6843F00203FB60344B00221A60334A2B
S32D0000E350FB68D3603248FFF753FF0346012B14BF01230023DBB2002B09D02C4B1B6B2B4A43F4702343F00103B4
S32D0000E3781363012348E0274B1B6B03F08003002B14BF01230023DBB2002B07D0214B1B6B204A43F0011313635A
S32D0000E3A0012335E01D4B1B6B03F48033002B14BF01230023DBB2002B08D0184B1B6B174A43F0011313634FF063
S32D0000E3C8FF3321E0FB6803F44033002B15D0114B1A697B681A61FB6803F44033B3F5803F0BD10C4B5A697B68CD
S32D0000E3F05A610A4B9A697B689A61084BDA697B68DA61064B1B6B054A43F001031363002318461037BD4680BD7F
S32D0000E4180C7C010000100B4001000E0080B592B000AF7860396000237B643B68BB63994B7B637B6B002B02D1E3
S32D0000E44040F6012362E3964B3B633B6B002B02D140F60B235AE33B6B1B68FB62FB6A002B02D140F60B2351E3CA
S32D0000E4687B6841F20932934200F242837B68B3F5985F08D87B68032B00F01D837B68092B00F00C8334E37B6816
S32D0000E490A3F59853013B082B00F22E8301A252F823F000BFC9E40000B9E7000017EA0000CFE700000DE8000011
S32D0000E4B837E900007FE90000C1E80000DBE800007649786BFFF7ECFD78647B6C002B40F01383002387F84330F8
S32D0000E4E0002387F82B30002387F82A30002387F82930002387F84230002387F8283000233B7200237B72002309
S32D0000E508FB6000233B7400237B6107F108031846FFF788FE0346002B14BF01230023DBB2002B02D001237B64C1
S32D0000E530EBE240F24C4000F0C3FE08233B7200237B724FF4D573FB6000233B7400237B6107F108031846FFF78B
S32D0000E55869FEF863FB6B002B09D1BA69FB689A4202D001237B64CCE2012387F84230012387F8283097F828308C
S32D0000E580002B00F0A58037233B7200237B720023FB6000233B7400237B6107F108031846FFF744FEF863FB6B6D
S32D0000E5A8002B02D001237B64ABE269233B7200237B720023FB6000233B7400237B6107F108031846FFF72EFE9D
S32D0000E5D00346002B14BF01230023DBB2002B02D001237B6491E2BB6903F44013002B6FD00023FB630A2000F01C
S32D0000E5F863FEFB6B0133FB6337233B7200237B720023FB6000233B7400237B6107F108031846FFF707FE034691
S32D0000E620002B14BF01230023DBB2002B02D001237B6428E069233B7200237B7297F84230002B02D0184BFB60ED
S32D0000E64802E04FF44013FB6000233B7400237B6107F108031846FFF7E5FD0346002B14BF01230023DBB2002B81
S32D0000E67002D001237B6406E0BB69002B03DBFB6B632B00D8B6E77B6C002B40F03B82FB6B632B0BD9002387F8B2
S32D0000E698423019E04C17002050190020007C010000003040012387F8433097F84230002B0AD0002387F84230C0
S32D0000E6C0BB6903F08043002B02D0012387F8423097F82A30002B02D07B6B07221A6097F82930002B02D07B6B06
S32D0000E6E808221A6097F82B30002B02D07B6B04221A6097F84330002B09D07B6B02221A6097F84230002B02D06B
S32D0000E7107B6B03221A6097F82B30002B0DD097F84330002B09D07B6B05221A6097F84230002B02D07B6B0622CB
S32D0000E7381A60A04B00221A609E4B00225A609D4B00229A609B4B0022DA609A4B00221A61984B00225A61FB6A00
S32D0000E7609A68FB6A5B6819461046FFF729FC934B40F243421A60914B40F243425A608F4B4FF488629A608D4B5C
S32D0000E78840F24342DA608B4B40F243421A61894B40F243425A61884B03F5815310331B68854943F4003201F592
S32D0000E7B0815310331A60A8E1B86BFFF737FDF863FB6B002B00F0A08102237B649CE1BB6B002B02D10C237B6424
S32D0000E7D897E17A4BDB6A1B0A5B0003F4FF73FB63764BDB6A1B0903F00F035A1CFB6B02FB03F3FB63FB6A9A6887
S32D0000E800FB6BB2FBF3F2BB6B1A607EE1BB6B002B02D10C237B6478E1BB6B1B68002B02D10C237B6471E1FFF76B
S32D0000E828D9FC0346002B0CBF01230023DBB2002B3ED0604B00221A605E4B00225A605D4B00229A605B4B002249
S32D0000E850DA605A4B00221A61584B00225A61FB6A9A68BB6B1B6819461046FFF7A9FB534B40F243421A60514BD4
S32D0000E87840F243425A604F4B4FF488629A604D4B40F24342DA604B4B40F243421A61494B40F243425A61484B56
S32D0000E8A003F5815310331B68454943F4003201F5815310331A6028E140F60A237B6424E1BB6B002B02D10C2397
S32D0000E8C87B641EE13D4B5B68C3F30C02BB6B1A6017E1BB6B002B02D10C237B6411E1FFF779FC0346002B0CBFCF
S32D0000E8F001230023DBB2002B19D0BB6B1B68B3F5805F02D30C237B64FFE02E4B5B682D4A23F4FF5323F01F03CF
S32D0000E91853602A4B5A68BB6B1B68C3F30C03274913434B60EDE040F60A237B64E9E0BB6B002B02D10C237B64FE
S32D0000E940E3E0204B9B6A5B0803F00303FB63FB6B002B03D1BB6B00221A60D6E0FB6B012B03D1BB6B01221A60B6
S32D0000E968CFE0FB6B102B03D1BB6B02221A60C8E005237B64C5E0BB6B002B02D10C237B64BFE0FFF727FC034612
S32D0000E990002B0CBF01230023DBB2002B37D0BB6B1B68002B10D1074B9B6A064A23F006039362044B034A9B6A4F
S32D0000E9B89362A6E000D004400070044000100B40BB6B1B68012B0CD1504B9B6A4F4A23F0060393624D4B9B6AFA
S32D0000E9E04C4A43F0020393628FE0BB6B1B68022B0AD1484B9B6A474A23F006039362454B444A9B6A936280E074
S32D0000EA0805237B647DE040F60A237B6479E0BB6B002B02D10C237B6473E03C4BDB6A3B4A43F00063D362394BBC
S32D0000EA30DB6A03F00063002B14BF01230023DBB2002B00D0F3E7334B1B6B03F08003002B14BF01230023DBB22A
S32D0000EA58002B08D02D4B1B6B2C4A43F0800313637B6B00221A60294B5B6A03F48033002B14BF01230023DBB2B6
S32D0000EA80002B07D07B6B1B68002B06D17B6B01221A6002E07B6B00221A607B6B1A68BB6B1A6032E0BB6B1C2296
S32D0000EAA81A60BB6B043304221A60BB6B08334FF41E721A6025E00220FFF79EFB134B1B6B03F4E003002B14BFA9
S32D0000EAD001230023DBB2002B07D00E4B1B6B0D4A43F4E003136304237B640A4B1B6B094A43F03203136308E082
S32D0000EAF840F609237B6404E000BF02E000BF00E000BF7B6C18464837BD4680BD00100B4080B489B000AF786079
S32D0000EB2039607B687B61364B3B613B69002B01D100235FE03B691B68022B0BD03B691B68032B07D03B691B68CD
S32D0000EB48072B03D03B691B68082B0BD12B4B5B6A03F00403002B14BF01230023DBB2002B00D0F3E73B68FB6189
S32D0000EB70FB69002B3DD0FB69B3F5007F28BF4FF40073FB60FB6803339B08BB61BB69002B2AD01C4B1B6B03F4D3
S32D0000EB98E003002B14BF01230023DBB2002B09D0164B1B6B154A43F4E00343F02003136300231BE0114B5B6A2B
S32D0000EBC003F40063002B0CBF01230023DBB2002B00D0F3E70B497B691A1D7A610A6A1A60BB69013BBB61D1E7C2
S32D0000EBE8FA69FB68D31AFB61BEE7012318462437BD4680BC704700BF4C17002000100B4080B58EB000AFB960A0
S32D0000EC107A601A460346FB731346BB73414B7B63FB7B002B02D1BB7B002B01D1042375E03D4B1B78DBB203F036
S32D0000EC380103002B14BF01230023DBB2002B01D0032367E0BB68002B01D1002362E07B6B1B7B002B02D17B688D
S32D0000EC605B027B60BB7B012B28D111233B7500237B757B68BB6101233B77BB7B3B6207F11403194641F2023081
S32D0000EC88FFF7CCFB0346002B0CBF01230023DBB2002B38D04FF40071B868FFF739FF0346002B14BF01230023CB
S32D0000ECB0DBB2002B2BD00023BB7328E012233B7500237B757B68BB6101233B77BB7B3B6207F11403194641F2E9
S32D0000ECD80230FFF7A3FB0346002B0CBF01230023DBB2002B0FD0BB7B5B021946B868FFF70FFF0346002B14BFCE
S32D0000ED0001230023DBB2002B01D00023BB73BB7B002B01D0012300E0002300BF18463837BD4680BD3817002030
S32D0000ED280000002080B487B000AF786039607B68FB603B687B617B69002B3DD07B69B3F5007F28BF4FF4007391
S32D0000ED503B617A693B69D31A7B613B6903339B083B613B69002BEAD0184B1B6B03F4E003002B14BF01230023FF
S32D0000ED78DBB2002B0AD0134B1B6B124A43F4E00343F0100313634FF0FF3316E00D4B5B6A03F48063002B0CBF71
S32D0000EDA001230023DBB2002B00D0F3E7FB681A1DFA60064A1B6813623B69013B3B61D0E7012318461C37BD4655
S32D0000EDC880BC704700100B4080B58EB000AFB9607A601A460346FB731346BB735D4B7B63FB7B002B02D1BB7BEC
S32D0000EDF0002B01D10423ADE0594B1B78DBB203F00103002B14BF01230023DBB2002B01D003239FE0524B1B78E6
S32D0000EE18DBB203F00403002B14BF01230023DBB2002B01D0022391E0BB68002B01D100238CE07B6B1B7B002B8B
S32D0000EE4002D17B685B027B60BB7B012B28D118233B7500237B757B68BB6100233B77BB7B3B6207F11403194648
S32D0000EE6841F20230FFF7DAFA0346002B0CBF01230023DBB2002B38D04FF40071B868FFF751FF0346002B14BFA6
S32D0000EE9001230023DBB2002B2BD00023BB7328E019233B7500237B757B68BB6100233B77BB7B3B6207F114034C
S32D0000EEB8194641F20230FFF7B1FA0346002B0CBF01230023DBB2002B0FD0BB7B5B021946B868FFF727FF034633
S32D0000EEE0002B14BF01230023DBB2002B01D00023BB730D233B7500237B757B6B1B69BB6100233B7700233B62D7
S32D0000EF0807F11403194641F20230FFF787FA0346002B14BF01230023DBB2002B01D0012314E07A6A0D4B1340D3
S32D0000EF30002B01D001230DE07B6A03F4F853B3F5106F00D0D5E7BB7B002B01D0012300E0002300BF18463837E7
S32D0000EF58BD4680BD38170020000000200880D9FF80B58CB000AF03463A60FB710B46BB713A4BBB62FB79002B2F
S32D0000EF8001D0042369E0012387F82F30364B1B78DBB203F00103002B14BF01230023DBB2002B01D0032358E05C
S32D0000EFA8BB79032B50D801A252F823F0C5EF0000CDEF0000DDEF0000EDEF0000002387F82F3044E0BB6A9A684D
S32D0000EFD03B681A60002387F82F303CE03B684FF400721A80002387F82F3034E009233B7200237B72BB6A1B6940
S32D0000EFF8FB6000233B7400237B6107F10803194641F20230FFF70AFA0346002B14BF01230023DBB2002B01D0E7
S32D0000F02001231AE07B6A03F44003002B0CD13B6A9B0C03F07F035A1C7B6A1B0A03F00303013B9A403B681A6010
S32D0000F048002387F82F3002E0042387F82F3097F82F3018463037BD4680BD00BF381700200000002080B483B00A
S32D0000F07000AF0346FB71FB79002B01D0012302E0034B1B78DBB218460C37BD4680BC70470000002080B483B00C
S32D0000F09800AF7860174B03F5815318331B68154943F0010201F5815318331A60124A7B689360114B05225A6035
S32D0000F0C00F4B1B680E4A43F0010313600C4B1B6803F08003002B0CBF01230023DBB2002B00D0F3E7064B1B6880
S32D0000F0E8054A23F00103136000BF0C37BD4680BC704700BF007004400000044080B582B000AF786039607B6808
S32D0000F110012B07D13B684FF6FF72934202D1034800F00EF800BF0837BD4680BD5819002080B500AF4FF6FF7123
S32D0000F1380120FFF7E3FF80BD80B483B000AF78607B6800221A707B6818460C37BD4680BC7047FFFF80B582B017
S32D0000F16000AF78607B681B7883F00103DBB2002B21D0134B03F5815308334FF400621A60104B4FF440721A6214
S32D0000F1880E4B4FF440725A620D4B1B68DA0F13445B104FF4614219460A48FEF7F1FB642000F08AF87B68012255
S32D0000F1B01A70012300E0002318460837BD4680BD0070044000D004405C19002000B00E4080B582B000AF78605A
S32D0000F1D8084611461A460346FB700B46BB7013467B707F210E48FEF7AAFC08210C48FEF7A6FCFB7819460A48C7
S32D0000F200FEF7A1FCBB7819460748FEF79CFC7B7819460548FEF797FCFF210348FEF793FC00BF0837BD4680BD8C
S32D0000F22800B00E4080B487B000AFF860B9607A60FB681F4AA2FB03239B09BA6813447B61FB681B4AA2FB031253
S32D0000F25092094FF47A7101FB02F29B1AFB60FB68DB03154AA2FB03239B097A6813443B613B69DB0B7A69134427
S32D0000F2787B613B69C3F30E033B610E4B1B687A699A4209D80B4B1B687A699A4206D1094B5B683A699A4201D92A
S32D0000F2A0012300E00023002B00D0EAE700BF1C37BD4680BC704700BFD34D621000D0034080B584B000AF7860F1
S32D0000F2C8074B1B68FB60064B5B68BB607B68BA68F9681846FFF7A6FF00BF1037BD4680BD00D0034080B584B098
S32D0000F2F000AFC7E900010E4B1B68FB600C4B5B68BB604FF000020B4BD7E9000103F048F902460B46104619464A
S32D0000F31803F004FC0346BA68F9681846FFF782FF00BF1037BD4680BD00D0034000408F4080B582B000AF7860DD
S32D0000F3400B46FB70FB781946786800F005F87B6818460837BD4680BD80B483B000AF78600B46FB707B68FA7885
S32D0000F3681A707B681B781A46534B9B5C042B00F29E8001A252F823F095F30000CFF3000009F4000043F40000C5
S32D0000F3907DF400004B4A7B681B7819464A4B53F8213040F2031142F82310484B5A697B681B781946444B53F88B
S32D0000F3B8213003F01F03012101FA03F3DB43414913404B6173E0404A7B681B7819463C4B53F8213040F20311EC
S32D0000F3E042F823103B4B5A697B681B781946364B53F8213003F01F03012101FA03F3DB43344913404B6156E05F
S32D0000F408334A7B681B7819462D4B53F8213040F2031142F823102F4B5A697B681B781946274B53F8213003F0AA
S32D0000F4301F03012101FA03F3DB43284913404B6139E0274A7B681B7819461F4B53F8213040F2031142F82310D3
S32D0000F458224B5A697B681B781946194B53F8213003F01F03012101FA03F3DB431B4913404B611CE01A4A7B6895
S32D0000F4801B781946104B53F8213040F2031142F82310164B5A697B681B7819460A4B53F8213003F01F030121A1
S32D0000F4A801FA03F3DB430F4913404B6100BF00BF0C37BD4680BC70470C7D010000900440507D010000F00F40AE
S32D0000F4D000A0044040F00F4000B0044080F00F4000C00440C0F00F4000D0044000F10F4080B485B000AF7860B1
S32D0000F4F80023FB607B681B781A46364B9B5C042B5CD801A252F823F025F5000045F5000065F5000085F500008F
S32D0000F520A5F500002E4B1B697A68127811462D4A52F8212002F01F02012101FA02F21340FB603FE0284B1B6979
S32D0000F5487A6812781146254A52F8212002F01F02012101FA02F21340FB602FE0214B1B697A68127811461D4ADD
S32D0000F57052F8212002F01F02012101FA02F21340FB601FE01A4B1B697A6812781146154A52F8212002F01F0268
S32D0000F598012101FA02F21340FB600FE0134B1B697A68127811460D4A52F8212002F01F02012101FA02F2134099
S32D0000F5C0FB6000BFFB68002B14BF01230023DBB218461437BD4680BC704700BF0C7D010000F00F40507D0100D9
S32D0000F5E840F00F4080F00F40C0F00F4000F10F4080B584B000AF78600B46FB700B23FB73FA7BFB781946786809
S32D0000F61000F094F87B6818461037BD4680BDFFFF80B485B000AF78607B68103B002B00DA1F335B11FB60FB68EB
S32D0000F638022B53D0FB68022B75DCFB68002B03D0FB68012B25D06EE0394BD3F880217B68103B594203F01F0372
S32D0000F66001F01F0158BF4B42012101FA03F332491343C1F88031304B1A687B68103B594203F01F0301F01F018D
S32D0000F68858BF4B42012101FA03F3294913430B6049E0274BD3F884217B68103B594203F01F0301F01F0158BF59
S32D0000F6B04B42012101FA03F31F491343C1F884311D4B5A687B68103B594203F01F0301F01F0158BF4B42012181
S32D0000F6D801FA03F3164913434B6024E0144BD3F888217B68103B594203F01F0301F01F0158BF4B42012101FA2C
S32D0000F70003F30D491343C1F888310B4B9A687B68103B594203F01F0301F01F0158BF4B42012101FA03F304497C
S32D0000F72813438B6000BF00BF1437BD4680BC704700E100E080B584B000AF78600B46FB701346BB707B68FA786D
S32D0000F7501A70BB78FB737B681B781A46574B9B5C042B00F2A68001A252F823F081F70000CDF7000019F800005D
S32D0000F778B1F8000065F80000FB7B1B0403F470234D497A68127810464C4A52F8202043F4897343F0010341F823
S32D0000F7A02230494B5A697B681B781946454B53F8213003F01F03012101FA03F3DB43424913404B616720FFF744
S32D0000F7C82BFF72E0FB7B1B0403F470233D497A6812781046394A52F8202043F4897343F0010341F82230384BAB
S32D0000F7F05A697B681B781946324B53F8213003F01F03012101FA03F3DB43314913404B616820FFF705FF4CE0CD
S32D0000F818FB7B1B0403F470232C497A6812781046264A52F8202043F4897343F0010341F82230274B5A697B6865
S32D0000F8401B7819461F4B53F8213003F01F03012101FA03F3DB43204913404B616920FFF7DFFE26E0FB7B1B04FD
S32D0000F86803F470231B497A6812781046134A52F8202043F4897343F0010341F82230164B5A697B681B781946ED
S32D0000F8900C4B53F8213003F01F03012101FA03F3DB430F4913404B616B20FFF7B9FE00E000BF00BF1037BD46DA
S32D0000F8B880BD00BF0C7D010000900440507D010000F00F4000A0044040F00F4000B0044080F00F4000D0044091
S32D0000F8E000F10F4080B58AB000AF3B1D20220021184604F0C3F80B237B600A23BB600723FB6006233B61052311
S32D0000F9087B610423BB610123FB6100237B627B6A072B32DC1B4BD3F8A0207B6A9B0007F128010B4453F8243C81
S32D0000F930012101FA03F31340002B14BF01230023DBB2002B19D0124A7B6A52F823305A1C0F497B6A41F8232050
S32D0000F9580C4BD3F8A0207B6A9B0007F128010B4453F8243C012101FA03F306491340C1F8A0307B6A01337B62D0
S32D0000F980C9E700BF2837BD4680BD00BF00A0044088190020B0B489B000AF234B3C1D1D460FCD0FC495E8030042
S32D0000F9A884E803000023FB61FB69052B32DC1D4BD3F8A020FB699B0007F120010B4453F81C3C012101FA03F391
S32D0000F9D01340002B14BF01230023DBB2002B19D0FB690833124A52F823200132104941F823200E4BD3F8A0205C
S32D0000F9F8FB699B0007F120010B4453F81C3C012101FA03F307491340C1F8A030FB690133FB61C9E700BF2437DA
S32D0000FA20BD46B0BC704700BF547E010000B0044088190020B0B48DB000AF244B3C461D460FCD0FC40FCD0FC449
S32D0000FA4895E8070084E807000023FB62FB6A0A2B32DC1D4BD3F8A020FB6A9B0007F130010B4453F8303C01212D
S32D0000FA7001FA03F31340002B14BF01230023DBB2002B19D0FB6A0E33124A52F823200132104941F823200E4B4E
S32D0000FA98D3F8A020FB6A9B0007F130010B4453F8303C012101FA03F307491340C1F8A030FB6A0133FB62C9E7A1
S32D0000FAC000BF3437BD46B0BC704700BF6C7E01000090044088190020B0B487B000AF224B3C461D460FCD0FC43E
S32D0000FAE82B68236000237B617B69042B32DC1D4BD3F8A0207B699B0007F118010B4453F8183C012101FA03F336
S32D0000FB101340002B14BF01230023DBB2002B19D07B691933124A52F823200132104941F823200E4BD3F8A02089
S32D0000FB387B699B0007F118010B4453F8183C012101FA03F307491340C1F8A0307B6901337B61C9E700BF1C372C
S32D0000FB60BD46B0BC704700BF987E010000D004408819002080B483B000AF78607B681B781A46044B53F82230F6
S32D0000FB8818460C37BD4680BC704700BF8819002080B483B000AF78607B681B781946044B002243F8212000BFC9
S32D0000FBB00C37BD4680BC70478819002080B483B000AF78600B46FB707B68FA781A707B6818460C37BD4680BCE1
S32D0000FBD87047FFFFFFFFFFFF80B586B000AF78607B681B781A463E4B53F822303B617B681B781A463B4B9B5C71
S32D0000FC00FB733B69DBB203F01F03DAB2384B1A723B69DBB203F01F03DAB2354B5A72354B1022C3F88820FB7BDE
S32D0000FC28002B13D13049324800F05AFA304B1B6803F08003802B14BF01230023DBB2002B00D0F3E72A4B1B69D4
S32D0000FC507B6112E02649294800F046FA274B1B6803F08003802B14BF01230023DBB2002B00D0F3E7214B1B6926
S32D0000FC787B611E4BD3F888311C4A43F01003C2F888311A4B9B68194A43F0100393607B699BB2184602F006FCEF
S32D0000FCA00DA3D3E9002302F07BFC02460B46104619460BA3D3E9002302F09CFD02460B461046194602F04EFF4B
S32D0000FCC80346BB60BB6818461837BD4680BD00BFA4703D0AD7A30A4000000000E0FFEF40D07D01002C7D0100B6
S32D0000FCF06819002000E100E000B0034000B00B4080B586B000AF78607B681B781A46234B53F822303B617B6844
S32D0000FD181B781A46204B9B5CFB733B69DBB203F01F03DAB21D4B1A723B69DBB203F01F03DAB21A4B5A72FB7BBB
S32D0000FD40002B13D11749184800F0CEF9164B1B6803F08003802B14BF01230023DBB2002B00D0F3E7104B1B69AF
S32D0000FD687B6112E00D490F4800F0BAF90D4B1B6803F08003802B14BF01230023DBB2002B00D0F3E7074B1B6901
S32D0000FD907B617B6918461837BD4680BDD07D01002C7D01007819002000B0034000B00B4098B500AF204B5C221C
S32D0000FDB81A701F4B10225A701D4B41F234225A801B4B45F278629A80194B10229A71184B0722DA71164B4FF4B5
S32D0000FDE0C022DA60144B1F221A72134B1F225A721149124800F078F90F49114800F074F90F4800F0D2F80D48B9
S32D0000FE0800F0CFF80A490C4800F06AF90849094800F066F9094A064B14460FCB84E80F00064B5C221A70054B2E
S32D0000FE300422DA7100BF98BD6819002000B0034000B00B407819002080B500AF064B1B680133054A136000F041
S32D0000FE583DF8044B0122C3F80C2100BF80BD00BF0C1A00200070034080B500AF0C4B01221A600C4800F01AF80B
S32D0000FE80094B0322C3F80821094BD3F88831084A43F01003C2F88831054B9B68044A43F01003936000BF80BD3E
S32D0000FEA800700340A086010000E100E080B483B000AF7860044A7B68C2F8003100BF0C37BD4680BC704700BFD0
S32D0000FED00070034080B584B000AF174B1B68FB60FB68002B24D0FB685B78FB71FB689B68184600F023F80346BD
S32D0000FEF8BB71BB79002B13D0FB685B68012B0FDDFB689B681B69BB60BB68002B08D0BB685B685A1CBB685A60CC
S32D0000FF20BB681B69BB60F3E7FB68DB68FB60D7E700BF1037BD4680BD081A002080B584B000AF78607868FFF70A
S32D0000FF48DBFEF8607B689B695B78FB72FB7A002B0FD17B68DB68FA689A420ADD7B689B6901225A707B685B68EE
S32D0000FF705A1C7B685A60012313E0FB7A012B0FD17B689B68FA689A420ADA7B689B6900225A707B685B685A1CC1
S32D0000FF987B685A60012300E0002318461037BD4680BD80B485B000AF78607B681B6A23F040027B681A627B68A3
S32D0000FFC05B6A23F00B027B685A627B685B6A43F007027B685A627B685B6A43F080027B685A627B681B6803F0B7
S32D0000FFE88003002B0CBF01230023DBB2002B00D0F3E77B685B6A03F04003402B0CBF01230023DBB2002B01D0E5
S32D00010010012364E00023FB817B68DB6CFB817B689B6C9AB2FB891344FB817B685B6C9AB2FB891344FB817B6857
S32D000100381B6C9AB2FB891344FB817B68DB6B9AB2FB891344FB817B689B6B9AB2FB891344FB81FB895B08FB81B4
S32D00010060FB896FEA43436FEA5343FB81FA897B68DA620023FB817B68DB6EFB817B689B6E9AB2FB891344FB812B
S32D000100887B685B6E9AB2FB891344FB817B681B6E9AB2FB891344FB817B68DB6D9AB2FB891344FB817B689B6D32
S32D000100B09AB2FB891344FB81FB895B08FB81FB896FEA43436FEA5343FB81FA897B681A637B685B6A23F080022D
S32D000100D87B685A62002318461437BD4680BC704780B483B000AF786039603B681B781A467B689A603B685B7828
S32D000101001A467B68DA603B685B881A467B689A613B689B881A467B68DA613B689B791A467B681A623B68DB79DE
S32D000101281A467B685A623B68DA687B681A653B681B7A1A467B681A603B685B7A1A467B685A6000BF0C37BD46F3
S32D0001015080BC704780B483B000AF78607B6818460C37BD4680BC704780B582B000AF786039607B68012B07D1B7
S32D000101783B684FF6FF72934202D10348FFF7E6FF00BF0837BD4680BD101A002080B500AF4FF6FF710120FFF7F9
S32D000101A0E3FF80BD80B483B000AF78600B46FB707B68FA781A707B684FF4FA725A807B6840F6C4129A807B6830
S32D000101C8034A9A607B6818460C37BD4680BC7047000080BF80B483B000AF786039603B68B3F5FA7F04DB3B683B
S32D000101F040F6C412934204DD7B684FF4FA725A8004E03B689AB27B685A8000BF00BF0C37BD4680BC704780B437
S32D0001021883B000AF786039603B68B3F5FA7F04DB3B6840F6C412934204DD7B6840F6C4129A8004E03B689AB280
S32D000102407B689A8000BF00BF0C37BD4680BC70472DE9904385B000AF786039604FF00001386802F07BFF034608
S32D00010268002B02D04FF000033B603149386802F08FFF0346002B01D02D4B3B607B689B681946386802F05CFF69
S32D000102900346002B00D04AE07B683A689A607B685C887B689B881A467B685B88D31A184602F00CF94FF00002DC
S32D000102B8204B02F09BFA02460B4690469946386802F012F902460B464046494602F064F902460B4610461946EF
S32D000102E002F020FC03469BB22344FB81FB897B73FB891B123B737F211148FDF724FC05210F48FDF720FC7B681A
S32D000103081B7819460C48FDF71AFC3B7B19460A48FDF715FC7B7B19460748FDF710FCFF210548FDF70CFC00BF3E
S32D000103301437BD46BDE89083000034430080664000B00E4080B582B000AF7860B84B4FF48072DA60B74B4FF458
S32D0001035880729A64B54B4FF480721A64B34B4FF480725A64B14B4FF48072DA60B04B5B69AF4A43F008035361CD
S32D00010380AE4B5B69AD4A43F480235361AB4B5B69AA4A43F480335361A84B5B69A74A43F400335361A54B1B6887
S32D000103A8A44A43F008031360A24B5B69A14A43F0080353619E4B1B689D4A43F0080313609A4B4FF480725A621F
S32D000103D0984B4FF480721A62954B4FF480721A61934B4FF480725A61914B4FF480729A618F4B4FF48072DA61B6
S32D000103F88D4B4FF480721A638B4B4FF480725A63894B4FF480729A63874B4FF48072DA63854B4FF480721A64B7
S32D00010420834B4FF480725A64814B4FF480729A647F4B4FF48072DA64814B4FF480721A607F4B4FF480729A603C
S32D000104487D4B4FF48072DA607B4B4FF480721A61784B5B69774A43F440735361744B5B69734A43F47F2343F0A6
S32D00010470F0035361734B5B69724A43F01D035361E221786800F094FD1D21786800F036FE0221786800F032FEA8
S32D000104980421786800F02EFEE021786800F084FD0121786800F026FE6420FEF705FFE021786800F079FD0321C4
S32D000104C0786800F01BFE0121786800F071FD0120FEF7F6FEE621786800F06AFD0121786800F00CFEA0217868DF
S32D000104E800F008FEFF21786800F004FEB021786800F05AFD1C21786800F0FCFD0F21786800F0F8FD0121786808
S32D0001051000F0F4FD3F21786800F0F0FD0021786800F0ECFDEF21786800F0E8FD0021786800F0E4FDB421786898
S32D0001053800F03AFD0121786800F0DCFD9921786800F0D8FD0021786800F0D4FD4521786800F0D0FD022178687B
S32D0001056000F0CCFD0021786800F0C8FD0021786800F0C4FD0021786800F0C0FDB621786800F016FD01217868E1
S32D0001058800F0B8FD0921786800F0B4FD0021786800F0B0FD0E21786800F0ACFD0221786800F0A8FD0021786815
S32D000105B000F0A4FD0021786800F0A0FDBA21786800F0F6FC0F21786800F098FD6420FEF777FE3A21786800F0B2
S32D000105D8EBFC6021786800F08DFD2A21786800F0E3FC0021786800F085FD0021786800F081FD0121786800F064
S32D000106007DFD3F21786800F079FD2B21786800F0CFFC0021786800F071FD0021786800F06DFD0021786800F019
S32D0001062869FDEF2178680BE000B0044000A0044080F00F4040F00F4000C00440C0F00F4000F058FD36217868CD
S32D0001065000F0AEFC0021786800F050FDF021786800F0A6FC0421786800F048FDB821786800F09EFC0F21786893
S32D0001067800F040FD0121786800F03CFD314B1B68304A43F0080313606420FEF715FE3621786800F089FC002178
S32D000106A0786800F02BFDF021786800F081FC0421786800F023FD0121786800F0B9F91E226F21786800F082F802
S32D000106C8AF225621786800F0DBF80021786800F0FCF9012301221C49786800F01DFA2921786800F061FC6420A4
S32D000106F0FEF7E6FDBE21786800F05AFC0E21786800F0FCFCF021786800F0F8FC0121786800F0F4FC002178684F
S32D0001071800F0F0FC0021786800F0ECFC0F21786800F0E8FC786800F01AFA0121786800F0CCF90021786800F08D
S32D00010740A1F900BF0837BD4680BD00BF40F00F40AC7E010080B582B000AF78607B680022DA617B6801221A6299
S32D000107687B680E225A607B681A229A607B6800225A617B6800229A617B684FF4A072DA607B68F0221A617B68F7
S32D0001079000221A70786801F0D9F87B6818460837BD4680BD80B582B000AF7860064B1B78002B05D1044B0122E7
S32D000107B81A707868FFF7C2FD00BF0837BD4680BD581A002080B58AB002AFF860B9607A607E23009362237A681D
S32D000107E0B968F86800F012FE40F24E733B610023FB61FA693B699A4240DA0023BB61214AFB6913441B781A4606
S32D00010808BB69934232DAFB6901331C4AD35C002B06D1FF23FB75FF23BB75FF237B7512E0FB690133154AD35C7F
S32D00010830012B06D1D423FB750023BB7526237B7505E0B523FB75BA23BB75B0237B757B7DBA7DF97DF86800F0B1
S32D00010858C9F80246FB68DA61F86801F073F8F86800F0ACFFBB690133BB61C4E7FB690233FB61BAE700BF203748
S32D00010880BD4680BD0400002080B58AB002AFF860B9607A602723009395237A68B968F86800F0B4FD40F2E63396
S32D000108A83B610023FB61FA693B699A4240DA0023BB61214AFB6913441B781A46BB69934232DAFB6901331C4AAE
S32D000108D0D35C002B06D1FF23FB75FF23BB75FF237B7512E0FB690133154AD35C012B06D10023FB750023BB75D1
S32D000108F800237B7505E0D423FB750023BB7526237B757B7DBA7DF97DF86800F06BF80246FB68DA61F86801F057
S32D0001092015F8F86800F04EFFBB690133BB61C4E7FB690233FB61BAE700BF2037BD4680BD5407002080B485B00F
S32D0001094800AF78600B46FB70FB78062B29D801A252F823F08109010079090100870901008F09010097090100BF
S32D000109709D090100A50901006FF07F43FB6014E00023FB6011E04FF47F03FB600DE04FF47F43FB6009E0FF23AB
S32D00010998FB6006E04FF41903FB6002E0044BFB6000BFFB6818461437BD4680BC704700BF9999990080B584B0F5
S32D000109C000AF786039603B681B0CFB733B681B0ABB733B687B737B7BBA7BF97B786800F005F8034618461037CF
S32D000109E8BD4680BD80B487B000AF7860084611461A460346FB700B46BB7013467B70FB789B107B61BB789B105D
S32D00010A103B617B789B10FB607B691A033B699B011A43FB68134318461C37BD4680BC704780B582B000AF786036
S32D00010A380B46FB70FB7819467868FFF77FFF03461946786800F004F800BF0837BD4680BD80B582B000AF78600D
S32D00010A60396039687868FFF7A9FF02467B681A62786800F06BFF786800F0D8FB00BF0837BD4680BD80B582B086
S32D00010A8800AF78600B46FB70FB7819467868FFF755FF03461946786800F004F800BF0837BD4680BD80B582B0E7
S32D00010AB000AF7860396039687868FFF77FFF02467B681A62786800F041FF00BF0837BD4680BD80B582B000AFF7
S32D00010AD878600B46FB70FB7819467868FFF72EFF03461946786800F004F800BF0837BD4680BD80B582B000AFBE
S32D00010B007860396039687868FFF758FF02467B68DA61786800F01AFF00BF0837BD4680BD80B586B000AFF86088
S32D00010B28B9607A603B6000237B617B69BA6813441B78002B0FD07B69BA6813441B783A687968F86800F0F8FC60
S32D00010B507B680C337B607B6901337B61E9E700BF1837BD4680BD80B582B000AF7860FCF7B7FE67210120FCF735
S32D00010B7822FE00210220FCF71EFEA0210320FCF71AFE50210420FCF716FE20210520FCF712FE20210620FCF78E
S32D00010BA00EFE77210720FCF70AFE00210820FCF706FE00210920FCF702FE00210A20FCF7FEFD04210B20FCF767
S32D00010BC8FAFD7B684FF0FF32DA637B684FF0FF321A6400BF0837BD4680BDFFFFFFFFFFFF80B586B000AFF860FC
S32D00010BF0B9607A600020FCF704FE0346FB75FB7D03F00203002B00F0CE80FCF717FEE020FCF7C8FD0220FEF765
S32D00010C1853FBFCF71DFE0120FEF74EFBFCF70AFEA520FCF7BBFD0120FEF746FBFCF7DDFD03469BB21B02BB8273
S32D00010C40FCF7D7FD03469AB2BB8A1343BB82FCF7D0FD03469BB21B027B82FCF7CAFD03469AB27B8A13437B823A
S32D00010C68BB8A1B11BB827B8A1B117B82FCF7F0FDFB68DB6BB3F1FF3F34D1FB681B6CB3F1FF3F2FD1BA8AFB689E
S32D00010C90DA637A8AFB681A647B8AC3F57F630F337B82BB8A184601F011FC49A3D3E9002301F076FC02460B46CD
S32D00010CB81046194601F052FF0246BB681A607B8A184601F0FFFB42A3D3E9002301F064FC02460B461046194680
S32D00010CE001F040FF02467B681A605AE0FB68DA6BBB8AD31A1946F86800F074F80346632B0CDCFB681A6C7B8A34
S32D00010D08D31A1946F86800F069F80346632B01DC012300E00023002B2FD0BA8AFB68DA637A8AFB681A647B8AEC
S32D00010D30C3F57F630F337B82BB8A184601F0C6FB23A3D3E9002301F02BFC02460B461046194601F007FF02461C
S32D00010D58BB681A607B8A184601F0B4FB1CA3D3E9002301F019FC02460B461046194601F0F5FE02467B681A6051
S32D00010D800FE0BB68164A1A607B68154A1A60FB684FF0FF32DA63FB684FF0FF321A64002310E001230EE0BB68F3
S32D00010DA80D4A1A607B680C4A1A60FB684FF0FF32DA63FB684FF0FF321A64002318461837BD4680BDAFF3008005
S32D00010DD0144001144001B43F1EE0011EE001AE3F000080BF80B483B000AF786039603B68002B02DA3B685B42BC
S32D00010DF83B603B6818460C37BD4680BC704780B584B000AF786039600023FB60786800F0CCFAFB683A681344FE
S32D00010E201B78002B12D07B6859697B689869FB683A6813441B780246786800F066FB786800F0CBFAFB680133E6
S32D00010E48FB60E6E700BF1037BD4680BD80B592B000AF786039604FF00001386802F08EF90346002B1FD038681A
S32D00010E7002F09CF903467B64786C01F07DFF03461946386801F0C2FE03461F49184601F0C7FF0346184602F0FB
S32D00010E9889F903463B6407F10C003B6C7A6C194903F046F822E03B6883F000433B60386802F078F903467B647C
S32D00010EC0786C01F059FF03461946386801F09EFE03460D49184601F0A3FF0346184602F065F903463B6407F19A
S32D00010EE80C003B6C7A6C084903F022F807F10C0319467868FFF783FF00BF4837BD4680BD00007A44C87E0100A3
S32D00010F10BC7E010080B584B000AFF860C7E90023D7E9000101F01EFE03461946F868FFF791FF00BF1037BD46CF
S32D00010F3880BD80B582B000AF78603960786800F034FA39687868FFF75AFF786800F018FA00BF0837BD4680BDD8
S32D00010F6080B582B000AF78603960786800F021FA39687868FFF76EFF786800F005FA00BF0837BD4680BD80B5CA
S32D00010F8884B000AFF860C7E90023F86800F00DFAD7E90023F868FFF7B9FFF86800F0F0F900BF1037BD4680BD65
S32D00010FB080B483B000AF78600B46FB704D4B1B684C4A23F0080313604B4B1B684A4A23F480231360484B1B6836
S32D00010FD8474A43F480331360454B1B68444A23F440731360414B1B68404A23F4435323F0300313603E4B1A6814
S32D00011000FB785B0203F400733B4913430B603A4B1A68FB785B101B0203F48073364913430B60344B1A68FB78A2
S32D000110289B101B0103F01003304913430B602F4B1A68FB78DB105B0103F020032B4913430B602A4B1A68FB7827
S32D000110501B119B0103F04003264913430B60254B1A68FB785B11DB01DBB2224913430B60204B1A68FB789B11D1
S32D000110781B0303F480531D4913430B601B4B1A6897F90330DB115BB25B0303F40053174913430B60164B1B68E9
S32D000110A0154A23F400331360134B1B68124A43F4003313600F4B1B680E4A43F0080313600D4B1B680C4A43F49D
S32D000110C840731360094B1B68084A43F4435343F030031360064B1B68054A43F48023136000BF0C37BD4680BC53
S32D000110F0704700BF80F00F4040F00F4080B483B000AF78600B46FB70464B1B68454A23F008031360444B1B682D
S32D00011118434A43F480331360414B1B68404A43F4802313603E4B1B683D4A23F4407313603A4B1B68394A23F466
S32D00011140435323F030031360374B1A68FB785B0203F40073344913430B60334B1A68FB785B101B0203F48073D0
S32D000111682F4913430B602D4B1A68FB789B101B0103F01003294913430B60284B1A68FB78DB105B0103F02003ED
S32D00011190244913430B60234B1A68FB781B119B0103F040031F4913430B601E4B1A68FB785B11DB01DBB21B49E1
S32D000111B813430B60194B1A68FB789B111B0303F48053164913430B60144B1A6897F90330DB115BB25B0303F448
S32D000111E00053104913430B600F4B1B680E4A23F4003313600C4B1B680B4A43F400331360084B1B68074A43F01B
S32D0001120808031360064B1B68054A23F48023136000BF0C37BD4680BC704700BF80F00F4040F00F4080B586B089
S32D0001123000AF78607B6800225A617B6800229A617B681B6AFB60FB68FB72FB681B0ABB72FB681B0CDBB203F0F6
S32D0001125803037B722A217868FFF7A6FE00217868FFF748FF00217868FFF744FF01217868FFF740FF3F217868C0
S32D00011280FFF73CFF2B217868FFF792FE00217868FFF734FF00217868FFF730FF00217868FFF72CFFEF217868FA
S32D000112A8FFF728FF2C217868FFF77EFE314B1B68304A23F4407313602F4B1B682E4A23F47F2323F0F0031360FE
S32D000112D02C4B1B682B4A23F01D031360274B1A687B681B6B254913430B60254B1A687B685B6B234913430B6086
S32D000112F8224B1A687B689B6B204913430B601E4B1B681D4A23F0080313601A4B1B68194A43F480231360002326
S32D000113207B617B69EF2B19D800233B613B69B3F5A07F0FD2114B1B68104A23F4003313600E4B1B680D4A43F468
S32D00011348003313603B6901333B61EBE77B6901337B61E2E7084B1B68074A43F008031360044B1B68034A23F4BF
S32D000113708023136000BF1837BD4680BD40F00F4080F00F40C0F00F4080B483B000AF78607B689B69002B07DDC9
S32D000113987B685B695A1C7B685A617B6800229A6100BF0C37BD4680BC704780B582B000AF78607B685A697B68FC
S32D000113C05B689A4205DB7B6800225A617868FFF72DFF00BF0837BD4680BD80B582B000AF78607B689B695A1C34
S32D000113E87B689A617B689A697B689B689A4205D17868FFF7C5FF7868FFF7D7FF00BF0837BD4680BD80B588B089
S32D0001141000AFF860B9607A603B60FB681B78022B03D0FB681B78032B11D17B68FB61BA6AFB691344013BBB61A6
S32D00011438FB68DA68BB68D31A3B613B683A69D31A01337B610DE0BB68FB613A68FB691344013BBB617B687B6111
S32D00011460BA6A7B691344013B3B612A21F868FFF79FFDFB691B0ADBB203F00F03DBB21946F868FFF73BFEFB69EF
S32D00011488DBB21946F868FFF735FEBB691B0ADBB203F00F03DBB21946F868FFF72BFEBB69DBB21946F868FFF714
S32D000114B025FE2B21F868FFF77BFD7B691B0ADBB203F00F03DBB21946F868FFF717FE7B69DBB21946F868FFF7B8
S32D000114D811FE3B691B0ADBB203F00F03DBB21946F868FFF707FE3B69DBB21946F868FFF701FE2C21F868FFF7AC
S32D0001150057FD00BF2037BD4680BD80B584B000AFF860B9607A60FB707A6813465B0013449B00991CBA6813468C
S32D000115281B011344DA1CFB78F86800F005F800BF1037BD4680BDFFFF80B58EB002AFF860B9607A60FB70FB78DA
S32D000115500A2B06D1F868FFF72CFFF868FFF714FFF2E0FB787D2B02D8FB781F2B01D82023FB70FB78203BFB7032
S32D00011578112300930C237A68B968F868FFF742FFFA7813469B0013446F4AD35C3B75FA7813469B00134401336E
S32D000115A06B4AD35C7B75FA7813469B0013440233674AD35CBB75FA7813469B0013440333634AD35CFB75FA7895
S32D000115C813469B00134404335F4AD35C3B760023BB62BB6A062B00F3A180F86800F050F9F86800F0B3F8002388
S32D000115F087F82F3000237B627B6A042B35DC07F114027B6A13441B7803F00103002B14BF01230023FB76FB7EC6
S32D00011618002B11D097F82F3083F00103DBB2002B03D0F86800F0CAF802E0F86800F08EF8F86800F08BF80DE01D
S32D0001164097F82F30002B03D0F86800F01DF902E0F86800F07FF8F86800F07CF8FB7E87F82F307B6A01337B626F
S32D00011668C6E797F82F30002B03D0F86800F008F902E0F86800F06AF8F86800F067F8002387F82F3000233B6265
S32D000116903B6A042B42DC07F114023B6A13441B7803F00103002B14BF01230023BB76BB7E002B11D097F82F30FC
S32D000116B883F00103DBB2002B03D0F86800F07EF802E0F86800F042F8F86800F03FF80DE097F82F30002B03D06F
S32D000116E0F86800F0D1F802E0F86800F033F8F86800F030F8BB7E87F82F3007F114023B6A13441B785B10D9B243
S32D0001170807F114023B6A13440A461A703B6A01333B62B9E7BB6A0133BB625AE7F86800F0AFF8002387F82F3009
S32D000117300123FB61FB69232B06DCF86800F00AF8FB690133FB61F5E73037BD4680BD00BF3C0B002080B483B020
S32D0001175800AF7860174B1B68164A43F480331360154B1B68144A23F008031360114B1B68104A43F480231360E1
S32D000117800E4B1B680D4A23F4003313600B4B1B680A4A43F400331360094B1B68084A43F008031360054B1B6893
S32D000117A8044A23F48023136000BF0C37BD4680BC704700BF40F00F4080F00F4080B483B000AF78602B4B1B68BB
S32D000117D02A4A43F480331360294B1B68284A23F008031360254B1B68244A43F480231360224B1B68214A23F4FF
S32D000117F840731360204B1B681F4A23F47F2323F0F00313601D4B1B681C4A23F01D031360184B1A687B685B6A8F
S32D00011820164913430B60164B1A687B689B6A144913430B60134B1A687B68DB6A114913430B600E4B1B680D4A3A
S32D0001184823F4003313600B4B1B680A4A43F400331360094B1B68084A43F008031360054B1B68044A23F48023F5
S32D00011870136000BF0C37BD4680BC704740F00F4080F00F40C0F00F4080B483B000AF78602B4B1B682A4A43F40F
S32D0001189880331360294B1B68284A23F008031360254B1B68244A43F480231360224B1B68214A23F440731360BB
S32D000118C0204B1B681F4A23F47F2323F0F00313601D4B1B681C4A23F01D031360184B1A687B681B6B1649134376
S32D000118E80B60164B1A687B685B6B144913430B60134B1A687B689B6B114913430B600E4B1B680D4A23F400335B
S32D0001191013600B4B1B680A4A43F400331360094B1B68084A43F008031360054B1B68044A23F48023136000BF44
S32D000119380C37BD4680BC704740F00F4080F00F40C0F00F4080B485B000AF78607B681B6AFB60FB68FB72FB6824
S32D000119601B0ABB72FB681B0CDBB203F003037B727B6800225A627B6800229A627B680022DA627B6800221A6384
S32D000119887B6800225A637B6800229A637B681A6BFB7A5B0203F400731A437B681A637B681A6BFB7A5B101B02A6
S32D000119B003F480731A437B681A637B685A6BFB7A9B101B0103F010031A437B685A637B685A6BFB7ADB105B0116
S32D000119D803F020031A437B685A637B685A6BFB7A1B119B0103F040031A437B685A637B685A6BFB7A5B11DB0150
S32D00011A00DBB21A437B685A637B685A6BFB7A9B111B0303F480531A437B685A637B685A6B97F90B30DB115BB213
S32D00011A285B0303F400531A437B685A637B685A6BBB7A9B0303F480431A437B685A637B685A6BBB7A5B10DB0392
S32D00011A509BB21A437B685A637B685A6BBB7A9B101B0403F480331A437B685A637B685A6BBB7ADB105B0403F4B1
S32D00011A7800331A437B685A637B685A6BBB7A1B119B0403F480231A437B685A637B685A6BBB7A5B11DB0403F4B1
S32D00011AA000231A437B685A637B689A6BBB7A9B1103F001031A437B689A637B689A6B97F90A30DB115BB29B00B4
S32D00011AC803F004031A437B689A637B689A6B7B7ADB0003F008031A437B689A637B689A6B7B7A5B101B0103F06E
S32D00011AF010031A437B689A637B68DB69FB60FB68FB72FB681B0ABB72FB681B0CDBB203F003037B727B685A6ACC
S32D00011B18FB7A5B0203F400731A437B685A627B685A6AFB7A5B101B0203F480731A437B685A627B689A6AFB7A80
S32D00011B409B101B0103F010031A437B689A627B689A6AFB7ADB105B0103F020031A437B689A627B689A6AFB7A1C
S32D00011B681B119B0103F040031A437B689A627B689A6AFB7A5B11DB01DBB21A437B689A627B689A6AFB7A9B119F
S32D00011B901B0303F480531A437B689A627B689A6A97F90B30DB115BB25B0303F400531A437B689A627B689A6A8C
S32D00011BB8BB7A9B0303F480431A437B689A627B689A6ABB7A5B10DB039BB21A437B689A627B689A6ABB7A9B1080
S32D00011BE01B0403F480331A437B689A627B689A6ABB7ADB105B0403F400331A437B689A627B689A6ABB7A1B11BD
S32D00011C089B0403F480231A437B689A627B689A6ABB7A5B11DB0403F400231A437B689A627B68DA6ABB7A9B1173
S32D00011C3003F001031A437B68DA627B68DA6A97F90A30DB115BB29B0003F004031A437B68DA627B68DA6A7B7AFB
S32D00011C58DB0003F008031A437B68DA627B68DA6A7B7A5B101B0103F010031A437B68DA6200BF1437BD4680BC9A
S32D00011C807047FFFF80B582B000AF786039607B68012B07D13B684FF6FF72934202D10348FEF758FD00BF08377E
S32D00011CA8BD4680BD141A002080B500AF4FF6FF710120FFF7E3FF80BD80B582B000AF7860174B03F5815314334D
S32D00011CD01B68154943F0400201F5815314331A60124B4FF400725A62104B4FF400721A620F4B14225A700E4BF7
S32D00011CF81B7ADBB20C4A43F00103DBB213720A4B80229A7002212B20FBF7DEFC3D212A20FBF7DAFC7B68184610
S32D00011D200837BD4680BD00BF0070044000C004400060064080B582B000AF786039607B68012B07D13B684FF6A2
S32D00011D48FF72934202D10348FFF7B6FF00BF0837BD4680BD5C1A002080B500AF4FF6FF710120FFF7E3FF80BDBA
S32D00011D7080B582B000AF78600B46FB707B68FA7811461846FDF71AFF7B6818460837BD4680BDFFFF80B582B05E
S32D00011D9800AF786039607B68012B08D13B684FF6FF72934203D120210348FFF7DDFF00BF0837BD4680BD00BFB7
S32D00011DC0601A002080B500AF4FF6FF710120FFF7E1FF80BD80B483B000AF78607B6800221A707B6818460C378C
S32D00011DE8BD4680BC7047FFFF80B483B000AF78603960044A3B68136000BF0C37BD4680BC704700BF641A002098
S32D00011E1080B582B000AF3248FBF77CFE0346FB71304AFB791370304B01221A702F4B1B78022B33D0022B4FDCC4
S32D00011E38002B02D0012B14D04AE0FB79FF2B44D1284B01221A70284B00221A70264B1B785A1CD1B2244A117066
S32D00011E601946244AFB79535433E0214B1B785A1CD1B21F4A117019461E4AFB7953541C4B1B780D2B27D11C4B03
S32D00011E881B68194A1278114618489847154B02221A701CE0FB79FF2B10D1124B01221A70114B00221A70104B2F
S32D00011EB01B785A1CD1B20E4A117019460D4AFB79535409E00A4B00221A70084B00221A7002E000BF00E000BFA4
S32D00011ED800BF0837BD4680BD00A006407B1A00207A1A0020791A0020781A0020681A0020641A002080B582B042
S32D00011F0000AF78607B681846FFF764FF7B6811491846FFF76DFF7B684FF0FF325A600E4B4FF000021A600D4B1B
S32D00011F284FF000021A600C4B4FF000021A600B4B00221A600A4B00221A700A4B00221A707B6818460837BD4646
S32D00011F5080BD00BF711F0100881A00208C1A0020901A0020941A0020981A0020991A002080B582B000AF786022
S32D00011F780B46FB70424B1B78002B7DD07B6801331B781B027A68023212781344184600F0EFFE03463B491846C2
S32D00011FA000F0F2FF03463A49184600F02FFE03461A46384B1A607B6803331B781B027A68043212781344184624
S32D00011FC800F0D6FE03462F49184600F0D9FF03462D49184600F016FE03461A462C4B1A607B6805331B781B02B9
S32D00011FF07A68063212781344184600F0BDFE03462249184600F0C0FF03462149184600F0FDFD03461A46214BED
S32D000120181A607B6807331B781A067B6808331B781B041A437B6809331B781B0213437A680A32127813431A469F
S32D00012040174B1A607B68DA7A164B1A707B680C331B78AA2B0CBF01230023DAB2124B1A70124B01221A70104BFF
S32D000120681B78002B08D0104800F052F80F4B1B680E4A23F40053136000BF0837BD4680BD841A002000002041B2
S32D000120900000C844881A00208C1A0020901A0020941A0020981A0020991A00209A1A00209C1A0020C0F00F40A7
S32D000120B880B582B000AF786039607B68012B07D13B684FF6FF72934202D10348FFF712FF00BF0837BD4680BDFA
S32D000120E07C1A002080B500AF4FF6FF710120FFF7E3FF80BD80B483B000AF7860054B00221A60044B00225A6047
S32D000121087B6818460C37BD4680BC70479C1A002080B584B000AF7860154B1B68002B21D00023FB60124B5B68CB
S32D00012130FA689A4214DA114AFB6852F82330002B0AD00E4AFB6852F823301846FBF723FF03461A460A4B1A70A2
S32D00012158FB680133FB60E5E7054B00225A60044B00221A60044B1B7818461037BD4680BD9C1A0020A81A002004
S32D00012180A41A002080B582B000AF786039607B68012B07D13B684FF6FF72934202D10348FFF7A8FF00BF0837FD
S32D000121A8BD4680BD9C1A002080B500AF4FF6FF710120FFF7E3FF80BD80B483B000AF78600B4B03F581531033D0
S32D000121D01B68094943F0010201F5815310331A60064B5B68054A43F03203536000BF0C37BD4680BC704700BF19
S32D000121F80070044000000A4038B5084C4FF41E652846E56001F01CF8A06020B10023C0E90053606038BDE06016
S32D00012220606038BD101B002081F0004102E000BF83F0004330B54FEA41044FEA430594EA050F08BF90EA020FBE
S32D000122481FBF54EA000C55EA020C7FEA645C7FEA655C00F0E2804FEA5454D4EB5555B8BF6D420CDD2C4480EA1A
S32D00012270020281EA030382EA000083EA010180EA020281EA0303362D88BF30BD11F0004F4FEA01314FF4801CDF
S32D000122984CEA113102D0404261EB410113F0004F4FEA03334CEA133302D0524263EB430394EA050F00F0A780DD
S32D000122C0A4F10104D5F1200E0DDB02FA0EFC22FA05F2801841F1000103FA0EF2801843FA05F359410EE0A5F1AD
S32D000122E820050EF1200E012A03FA0EFC28BF4CF0020C43FA05F3C01851EBE37101F0004507D54FF0000EDCF149
S32D00012310000C7EEB00006EEB0101B1F5801F1BD3B1F5001F0CD349085FEA30004FEA3C0C04F101044FEA4452E3
S32D0001233812F5800F80F09A80BCF1004F08BF5FEA500C50F1000041EB045141EA050130BD5FEA4C0C404141EBC0
S32D000123600101013C28BFB1F5801FE9D291F0000F04BF01460020B1FA81F308BF2033A3F10B03B3F120020CDAE7
S32D000123880C3208DD02F1140CC2F10C0201FA0CF021FA02F10CE002F11402D8BFC2F1200C01FA02F120FA0CFCAF
S32D000123B0DCBF41EA0C019040E41AA2BF01EB0451294330BD6FEA04041F3C1CDA0C340EDC04F11404C4F12002A2
S32D000123D820FA04F001FA02F340EA030021FA04F345EA030130BDC4F10C04C4F1200220FA02F001FA04F340EAB5
S32D000124000300294630BD21FA04F0294630BD94F0000F83F4801306BF81F480110134013D4EE77FEA645C18BFD3
S32D000124287FEA655C29D094EA050F08BF90EA020F05D054EA000C04BF1946104630BD91EA030F1EBF002100204F
S32D0001245030BD5FEA545C05D14000494128BF41F0004130BD14F580043CBF01F5801130BD01F0004545F0FE41EB
S32D0001247841F470014FF0000030BD7FEA645C1ABF194610467FEA655C1CBF0B46024650EA013406BF52EA033566
S32D000124A091EA030F41F4002130BD00BF90F0000F04BF0021704730B54FF4806404F132044FF000054FF0000199
S32D000124C850E700BF90F0000F04BF0021704730B54FF4806404F1320410F0004548BF40424FF000013EE700BF9C
S32D000124F042004FEAE2014FEA31014FEA02701FBF12F07F4393F07F4F81F06051704732F07F4208BF704793F099
S32D000125187F4F04BF41F40021704730B54FF4607401F0004521F000411CE700BF50EA010208BF704730B54FF0D1
S32D0001254000050AE050EA010208BF704730B511F0004502D5404261EB41014FF4806404F132045FEA915C3FF4F5
S32D00012568D8AE4FF003025FEADC0C18BF03325FEADC0C18BF033202EBDC02C2F1200300FA03FC20FA02F001FA5F
S32D0001259003FE40EA0E0021FA02F11444BDE600BF70B54FF0FF0C4CF4E06C1CEA11541DBF1CEA135594EA0C0FD2
S32D000125B895EA0C0F00F0DEF82C4481EA030621EA4C5123EA4C5350EA013518BF52EA033541F4801143F4801311
S32D000125E038D0A0FB02CE4FF00005E1FB02E506F00042E0FB03E54FF00006E1FB03569CF0000F18BF4EF0010E1E
S32D00012608A4F1FF04B6F5007F64F5407404D25FEA4E0E6D4146EB060642EAC62141EA55514FEAC52040EA5E5094
S32D000126304FEACE2EB4F1FD0C88BFBCF5E06F1ED8BEF1004F08BF5FEA500E50F1000041EB045170BD06F00046C4
S32D0001265846EA010140EA020081EA0301B4EB5C04C2BFD4EB0C0541EA045170BD41F480114FF0000E013C00F346
S32D00012680AB8014F1360FDEBF002001F0004170BDC4F10004203C35DA0C341BDC04F11404C4F1200500FA05F366
S32D000126A820FA04F001FA05F240EA020001F0004221F0004110EBD37021FA04F642EB06015EEA430E08BF20EA61
S32D000126D0D37070BDC4F10C04C4F1200500FA04F320FA05F001FA04F240EA020001F0004110EBD37041F100010C
S32D000126F85EEA430E08BF20EAD37070BDC4F1200500FA05F24EEA020E20FA04F301FA05F243EA020321FA04F082
S32D0001272001F0004121FA04F220EA020000EBD3705EEA430E08BF20EAD37070BD94F0000F0FD101F00046400049
S32D0001274841EB010111F4801F08BF013CF7D041EA060195F0000F18BF704703F00046520043EB030313F4801F0C
S32D0001277008BF013DF7D043EA0603704794EA0C0F0CEA135518BF95EA0C0F0CD050EA410618BF52EA4306D1D1BE
S32D0001279881EA030101F000414FF0000070BD50EA410606BF1046194652EA430619D094EA0C0F02D150EA0136BF
S32D000127C013D195EA0C0F05D152EA03361CBF104619460AD181EA030101F0004141F0FE4141F470014FF00000C0
S32D000127E870BD41F0FE4141F4780170BD70B54FF0FF0C4CF4E06C1CEA11541DBF1CEA135594EA0C0F95EA0C0F67
S32D0001281000F0A7F8A4EB050481EA030E52EA03354FEA013100F088804FEA03334FF0805545EA131343EA1263A5
S32D000128384FEA022245EA111545EA10654FEA00260EF000419D4208BF964244F1FD0404F5407402D25B084FEAAC
S32D000128603202B61A65EB03055B084FEA32024FF480104FF4002CB6EB020E75EB030E22BFB61A754640EA0C0017
S32D000128885B084FEA3202B6EB020E75EB030E22BFB61A754640EA5C005B084FEA3202B6EB020E75EB030E22BF6A
S32D000128B0B61A754640EA9C005B084FEA3202B6EB020E75EB030E22BFB61A754640EADC0055EA060E18D04FEAD0
S32D000128D8051545EA16754FEA06164FEAC30343EA52734FEAC2025FEA1C1CC0D111F4801F0BD141EA00014FF0BD
S32D0001290000004FF0004CB6E711F4801F04BF01430020B4F1FD0C88BFBCF5E06F3FF6AFAEB5EB030C04BFB6EB1B
